{
    "_format": "hh-sol-artifact-1",
    "contractName": "ERC721",
    "sourceName": "contracts/PwMD.sol",
    "abi": [
        {
            "inputs": [
                {
                    "internalType": "string",
                    "name": "_name",
                    "type": "string"
                },
                {
                    "internalType": "string",
                    "name": "_symbol",
                    "type": "string"
                },
                {
                    "internalType": "uint256",
                    "name": "MINT_PRICE",
                    "type": "uint256"
                },
                {
                    "internalType": "uint256",
                    "name": "MAX_SUPPLY",
                    "type": "uint256"
                }
            ],
            "stateMutability": "nonpayable",
            "type": "constructor"
        },
        {
            "anonymous": false,
            "inputs": [
                {
                    "indexed": true,
                    "internalType": "address",
                    "name": "owner",
                    "type": "address"
                },
                {
                    "indexed": true,
                    "internalType": "address",
                    "name": "spender",
                    "type": "address"
                },
                {
                    "indexed": true,
                    "internalType": "uint256",
                    "name": "id",
                    "type": "uint256"
                }
            ],
            "name": "Approval",
            "type": "event"
        },
        {
            "anonymous": false,
            "inputs": [
                {
                    "indexed": true,
                    "internalType": "address",
                    "name": "owner",
                    "type": "address"
                },
                {
                    "indexed": true,
                    "internalType": "address",
                    "name": "operator",
                    "type": "address"
                },
                {
                    "indexed": false,
                    "internalType": "bool",
                    "name": "approved",
                    "type": "bool"
                }
            ],
            "name": "ApprovalForAll",
            "type": "event"
        },
        {
            "anonymous": false,
            "inputs": [
                {
                    "indexed": true,
                    "internalType": "address",
                    "name": "from",
                    "type": "address"
                },
                {
                    "indexed": true,
                    "internalType": "address",
                    "name": "to",
                    "type": "address"
                },
                {
                    "indexed": true,
                    "internalType": "uint256",
                    "name": "id",
                    "type": "uint256"
                }
            ],
            "name": "Transfer",
            "type": "event"
        },
        {
            "inputs": [
                {
                    "internalType": "address",
                    "name": "spender",
                    "type": "address"
                },
                {
                    "internalType": "uint256",
                    "name": "id",
                    "type": "uint256"
                }
            ],
            "name": "approve",
            "outputs": [],
            "stateMutability": "nonpayable",
            "type": "function"
        },
        {
            "inputs": [
                {
                    "internalType": "address",
                    "name": "owner",
                    "type": "address"
                }
            ],
            "name": "balanceOf",
            "outputs": [
                {
                    "internalType": "uint256",
                    "name": "",
                    "type": "uint256"
                }
            ],
            "stateMutability": "view",
            "type": "function"
        },
        {
            "inputs": [
                {
                    "internalType": "uint256",
                    "name": "tokenId",
                    "type": "uint256"
                },
                {
                    "internalType": "bytes32",
                    "name": "hashed_nft_password",
                    "type": "bytes32"
                },
                {
                    "internalType": "bytes32",
                    "name": "url",
                    "type": "bytes32"
                },
                {
                    "internalType": "bytes32",
                    "name": "username",
                    "type": "bytes32"
                }
            ],
            "name": "deletePassword",
            "outputs": [],
            "stateMutability": "nonpayable",
            "type": "function"
        },
        {
            "inputs": [
                {
                    "internalType": "uint256",
                    "name": "tokenId",
                    "type": "uint256"
                },
                {
                    "internalType": "bytes32",
                    "name": "hashed_nft_password",
                    "type": "bytes32"
                },
                {
                    "internalType": "bytes32",
                    "name": "url",
                    "type": "bytes32"
                },
                {
                    "internalType": "bytes32",
                    "name": "username",
                    "type": "bytes32"
                }
            ],
            "name": "getPassword",
            "outputs": [
                {
                    "internalType": "bytes",
                    "name": "",
                    "type": "bytes"
                },
                {
                    "internalType": "bytes",
                    "name": "",
                    "type": "bytes"
                }
            ],
            "stateMutability": "view",
            "type": "function"
        },
        {
            "inputs": [
                {
                    "internalType": "address",
                    "name": "",
                    "type": "address"
                },
                {
                    "internalType": "address",
                    "name": "",
                    "type": "address"
                }
            ],
            "name": "isApprovedForAll",
            "outputs": [
                {
                    "internalType": "bool",
                    "name": "",
                    "type": "bool"
                }
            ],
            "stateMutability": "view",
            "type": "function"
        },
        {
            "inputs": [],
            "name": "max_supply",
            "outputs": [
                {
                    "internalType": "uint256",
                    "name": "",
                    "type": "uint256"
                }
            ],
            "stateMutability": "view",
            "type": "function"
        },
        {
            "inputs": [
                {
                    "internalType": "address",
                    "name": "to",
                    "type": "address"
                }
            ],
            "name": "mint",
            "outputs": [],
            "stateMutability": "payable",
            "type": "function"
        },
        {
            "inputs": [],
            "name": "mint_price",
            "outputs": [
                {
                    "internalType": "uint256",
                    "name": "",
                    "type": "uint256"
                }
            ],
            "stateMutability": "view",
            "type": "function"
        },
        {
            "inputs": [],
            "name": "name",
            "outputs": [
                {
                    "internalType": "string",
                    "name": "",
                    "type": "string"
                }
            ],
            "stateMutability": "view",
            "type": "function"
        },
        {
            "inputs": [
                {
                    "internalType": "uint256",
                    "name": "id",
                    "type": "uint256"
                }
            ],
            "name": "ownerOf",
            "outputs": [
                {
                    "internalType": "address",
                    "name": "owner",
                    "type": "address"
                }
            ],
            "stateMutability": "view",
            "type": "function"
        },
        {
            "inputs": [
                {
                    "internalType": "address",
                    "name": "operator",
                    "type": "address"
                },
                {
                    "internalType": "bool",
                    "name": "approved",
                    "type": "bool"
                }
            ],
            "name": "setApprovalForAll",
            "outputs": [],
            "stateMutability": "nonpayable",
            "type": "function"
        },
        {
            "inputs": [
                {
                    "internalType": "uint256",
                    "name": "tokenId",
                    "type": "uint256"
                },
                {
                    "internalType": "bytes32",
                    "name": "hashed_nft_password",
                    "type": "bytes32"
                },
                {
                    "internalType": "bytes32",
                    "name": "url",
                    "type": "bytes32"
                },
                {
                    "internalType": "bytes32",
                    "name": "username",
                    "type": "bytes32"
                },
                {
                    "internalType": "bytes",
                    "name": "encrypted_password",
                    "type": "bytes"
                },
                {
                    "internalType": "bytes",
                    "name": "iv",
                    "type": "bytes"
                }
            ],
            "name": "storePassword",
            "outputs": [],
            "stateMutability": "nonpayable",
            "type": "function"
        },
        {
            "inputs": [],
            "name": "symbol",
            "outputs": [
                {
                    "internalType": "string",
                    "name": "",
                    "type": "string"
                }
            ],
            "stateMutability": "view",
            "type": "function"
        },
        {
            "inputs": [
                {
                    "internalType": "address",
                    "name": "from",
                    "type": "address"
                },
                {
                    "internalType": "address",
                    "name": "to",
                    "type": "address"
                },
                {
                    "internalType": "uint256",
                    "name": "id",
                    "type": "uint256"
                }
            ],
            "name": "transferFrom",
            "outputs": [],
            "stateMutability": "nonpayable",
            "type": "function"
        },
        {
            "inputs": [
                {
                    "internalType": "uint256",
                    "name": "tokenId",
                    "type": "uint256"
                },
                {
                    "internalType": "bytes32",
                    "name": "hashed_nft_password",
                    "type": "bytes32"
                },
                {
                    "internalType": "bytes32",
                    "name": "url",
                    "type": "bytes32"
                },
                {
                    "internalType": "bytes32",
                    "name": "username",
                    "type": "bytes32"
                },
                {
                    "internalType": "bytes",
                    "name": "new_pass",
                    "type": "bytes"
                },
                {
                    "internalType": "bytes",
                    "name": "iv",
                    "type": "bytes"
                }
            ],
            "name": "updatePassword",
            "outputs": [],
            "stateMutability": "nonpayable",
            "type": "function"
        }
    ],
    "bytecode": "0x608060405234801561001057600080fd5b50604051612a77380380612a7783398181016040528101906100329190610214565b836000908161004191906104ca565b50826001908161005191906104ca565b5081600281905550806003819055505050505061059c565b6000604051905090565b600080fd5b600080fd5b600080fd5b600080fd5b6000601f19601f8301169050919050565b7f4e487b7100000000000000000000000000000000000000000000000000000000600052604160045260246000fd5b6100d082610087565b810181811067ffffffffffffffff821117156100ef576100ee610098565b5b80604052505050565b6000610102610069565b905061010e82826100c7565b919050565b600067ffffffffffffffff82111561012e5761012d610098565b5b61013782610087565b9050602081019050919050565b60005b83811015610162578082015181840152602081019050610147565b60008484015250505050565b600061018161017c84610113565b6100f8565b90508281526020810184848401111561019d5761019c610082565b5b6101a8848285610144565b509392505050565b600082601f8301126101c5576101c461007d565b5b81516101d584826020860161016e565b91505092915050565b6000819050919050565b6101f1816101de565b81146101fc57600080fd5b50565b60008151905061020e816101e8565b92915050565b6000806000806080858703121561022e5761022d610073565b5b600085015167ffffffffffffffff81111561024c5761024b610078565b5b610258878288016101b0565b945050602085015167ffffffffffffffff81111561027957610278610078565b5b610285878288016101b0565b9350506040610296878288016101ff565b92505060606102a7878288016101ff565b91505092959194509250565b600081519050919050565b7f4e487b7100000000000000000000000000000000000000000000000000000000600052602260045260246000fd5b6000600282049050600182168061030557607f821691505b602082108103610318576103176102be565b5b50919050565b60008190508160005260206000209050919050565b60006020601f8301049050919050565b600082821b905092915050565b6000600883026103807fffffffffffffffffffffffffffffffffffffffffffffffffffffffffffffffff82610343565b61038a8683610343565b95508019841693508086168417925050509392505050565b6000819050919050565b60006103c76103c26103bd846101de565b6103a2565b6101de565b9050919050565b6000819050919050565b6103e1836103ac565b6103f56103ed826103ce565b848454610350565b825550505050565b600090565b61040a6103fd565b6104158184846103d8565b505050565b5b818110156104395761042e600082610402565b60018101905061041b565b5050565b601f82111561047e5761044f8161031e565b61045884610333565b81016020851015610467578190505b61047b61047385610333565b83018261041a565b50505b505050565b600082821c905092915050565b60006104a160001984600802610483565b1980831691505092915050565b60006104ba8383610490565b9150826002028217905092915050565b6104d3826102b3565b67ffffffffffffffff8111156104ec576104eb610098565b5b6104f682546102ed565b61050182828561043d565b600060209050601f8311600181146105345760008415610522578287015190505b61052c85826104ae565b865550610594565b601f1984166105428661031e565b60005b8281101561056a57848901518255600182019150602085019450602081019050610545565b868310156105875784890151610583601f891682610490565b8355505b6001600288020188555050505b505050505050565b6124cc806105ab6000396000f3fe6080604052600436106100e85760003560e01c806370a082311161008a578063a22cb46511610059578063a22cb465146102e8578063b3c7c10014610311578063e985e9c51461033a578063ffa5bc9514610377576100e8565b806370a08231146102175780638a333b501461025457806395d89b411461027f5780639f405398146102aa576100e8565b80631a4231a4116100c65780631a4231a41461016a57806323b872dd146101955780636352211e146101be5780636a627842146101fb576100e8565b806306fdde03146100ed578063095ea7b3146101185780630c5e942514610141575b600080fd5b3480156100f957600080fd5b506101026103a0565b60405161010f91906116e9565b60405180910390f35b34801561012457600080fd5b5061013f600480360381019061013a91906117a9565b61042e565b005b34801561014d57600080fd5b5061016860048036038101906101639190611884565b610617565b005b34801561017657600080fd5b5061017f61073c565b60405161018c9190611962565b60405180910390f35b3480156101a157600080fd5b506101bc60048036038101906101b7919061197d565b610742565b005b3480156101ca57600080fd5b506101e560048036038101906101e091906119d0565b610a2e565b6040516101f29190611a0c565b60405180910390f35b61021560048036038101906102109190611a27565b610ada565b005b34801561022357600080fd5b5061023e60048036038101906102399190611a27565b610b69565b60405161024b9190611962565b60405180910390f35b34801561026057600080fd5b50610269610c20565b6040516102769190611962565b60405180910390f35b34801561028b57600080fd5b50610294610c26565b6040516102a191906116e9565b60405180910390f35b3480156102b657600080fd5b506102d160048036038101906102cc9190611a54565b610cb4565b6040516102df929190611b10565b60405180910390f35b3480156102f457600080fd5b5061030f600480360381019061030a9190611b7f565b610f65565b005b34801561031d57600080fd5b5061033860048036038101906103339190611884565b611062565b005b34801561034657600080fd5b50610361600480360381019061035c9190611bbf565b611187565b60405161036e9190611c0e565b60405180910390f35b34801561038357600080fd5b5061039e60048036038101906103999190611a54565b6111b6565b005b600080546103ad90611c58565b80601f01602080910402602001604051908101604052809291908181526020018280546103d990611c58565b80156104265780601f106103fb57610100808354040283529160200191610426565b820191906000526020600020905b81548152906001019060200180831161040957829003601f168201915b505050505081565b60006005600083815260200190815260200160002060009054906101000a900473ffffffffffffffffffffffffffffffffffffffff1690508073ffffffffffffffffffffffffffffffffffffffff163373ffffffffffffffffffffffffffffffffffffffff1614806105265750600960008273ffffffffffffffffffffffffffffffffffffffff1673ffffffffffffffffffffffffffffffffffffffff16815260200190815260200160002060003373ffffffffffffffffffffffffffffffffffffffff1673ffffffffffffffffffffffffffffffffffffffff16815260200190815260200160002060009054906101000a900460ff165b610565576040517f08c379a000000000000000000000000000000000000000000000000000000000815260040161055c90611cd5565b60405180910390fd5b826008600084815260200190815260200160002060006101000a81548173ffffffffffffffffffffffffffffffffffffffff021916908373ffffffffffffffffffffffffffffffffffffffff160217905550818373ffffffffffffffffffffffffffffffffffffffff168273ffffffffffffffffffffffffffffffffffffffff167f8c5be1e5ebec7d5bd14f71427d1e84f3dd0314c0f7b2291e5b200ac8c7c3b92560405160405180910390a4505050565b87873373ffffffffffffffffffffffffffffffffffffffff166005600084815260200190815260200160002060009054906101000a900473ffffffffffffffffffffffffffffffffffffffff1673ffffffffffffffffffffffffffffffffffffffff16146106ba576040517f08c379a00000000000000000000000000000000000000000000000000000000081526004016106b190611d41565b60405180910390fd5b60008a89896040516020016106d193929190611da3565b6040516020818303038152906040528051906020012090508686600a6000848152602001908152602001600020918261070b929190611fc6565b508484600b6000848152602001908152602001600020918261072e929190611fc6565b505050505050505050505050565b60025481565b6005600082815260200190815260200160002060009054906101000a900473ffffffffffffffffffffffffffffffffffffffff1673ffffffffffffffffffffffffffffffffffffffff168373ffffffffffffffffffffffffffffffffffffffff16146107e3576040517f08c379a00000000000000000000000000000000000000000000000000000000081526004016107da906120e2565b60405180910390fd5b600073ffffffffffffffffffffffffffffffffffffffff168273ffffffffffffffffffffffffffffffffffffffff1603610852576040517f08c379a00000000000000000000000000000000000000000000000000000000081526004016108499061214e565b60405180910390fd5b61085d8333836112b0565b61089c576040517f08c379a000000000000000000000000000000000000000000000000000000000815260040161089390611cd5565b60405180910390fd5b600760008473ffffffffffffffffffffffffffffffffffffffff1673ffffffffffffffffffffffffffffffffffffffff16815260200190815260200160002060008154809291906108ec9061219d565b9190505550600760008373ffffffffffffffffffffffffffffffffffffffff1673ffffffffffffffffffffffffffffffffffffffff1681526020019081526020016000206000815480929190610941906121c6565b9190505550816005600083815260200190815260200160002060006101000a81548173ffffffffffffffffffffffffffffffffffffffff021916908373ffffffffffffffffffffffffffffffffffffffff1602179055506008600082815260200190815260200160002060006101000a81549073ffffffffffffffffffffffffffffffffffffffff0219169055808273ffffffffffffffffffffffffffffffffffffffff168473ffffffffffffffffffffffffffffffffffffffff167fddf252ad1be2c89b69c2b068fc378daa952ba7f163c4a11628f55a4df523b3ef60405160405180910390a4505050565b60006005600083815260200190815260200160002060009054906101000a900473ffffffffffffffffffffffffffffffffffffffff169050600073ffffffffffffffffffffffffffffffffffffffff168173ffffffffffffffffffffffffffffffffffffffff1603610ad5576040517f08c379a0000000000000000000000000000000000000000000000000000000008152600401610acc9061225a565b60405180910390fd5b919050565b600060046000815480929190610aef906121c6565b919050559050610aff82826113e4565b600660008373ffffffffffffffffffffffffffffffffffffffff1673ffffffffffffffffffffffffffffffffffffffff1681526020019081526020016000208190806001815401808255809150506001900390600052602060002001600090919091909150555050565b60008073ffffffffffffffffffffffffffffffffffffffff168273ffffffffffffffffffffffffffffffffffffffff1603610bd9576040517f08c379a0000000000000000000000000000000000000000000000000000000008152600401610bd0906122c6565b60405180910390fd5b600760008373ffffffffffffffffffffffffffffffffffffffff1673ffffffffffffffffffffffffffffffffffffffff168152602001908152602001600020549050919050565b60035481565b60018054610c3390611c58565b80601f0160208091040260200160405190810160405280929190818152602001828054610c5f90611c58565b8015610cac5780601f10610c8157610100808354040283529160200191610cac565b820191906000526020600020905b815481529060010190602001808311610c8f57829003601f168201915b505050505081565b60608085853373ffffffffffffffffffffffffffffffffffffffff166005600084815260200190815260200160002060009054906101000a900473ffffffffffffffffffffffffffffffffffffffff1673ffffffffffffffffffffffffffffffffffffffff1614610d5a576040517f08c379a0000000000000000000000000000000000000000000000000000000008152600401610d5190611d41565b60405180910390fd5b6000888787604051602001610d7193929190611da3565b6040516020818303038152906040528051906020012090506000600a60008381526020019081526020016000208054610da990611c58565b80601f0160208091040260200160405190810160405280929190818152602001828054610dd590611c58565b8015610e225780601f10610df757610100808354040283529160200191610e22565b820191906000526020600020905b815481529060010190602001808311610e0557829003601f168201915b505050505090506000815111610e6d576040517f08c379a0000000000000000000000000000000000000000000000000000000008152600401610e6490612332565b60405180910390fd5b6000600b60008481526020019081526020016000208054610e8d90611c58565b80601f0160208091040260200160405190810160405280929190818152602001828054610eb990611c58565b8015610f065780601f10610edb57610100808354040283529160200191610f06565b820191906000526020600020905b815481529060010190602001808311610ee957829003601f168201915b505050505090506000815111610f51576040517f08c379a0000000000000000000000000000000000000000000000000000000008152600401610f489061239e565b60405180910390fd5b818196509650505050505094509492505050565b80600960003373ffffffffffffffffffffffffffffffffffffffff1673ffffffffffffffffffffffffffffffffffffffff16815260200190815260200160002060008473ffffffffffffffffffffffffffffffffffffffff1673ffffffffffffffffffffffffffffffffffffffff16815260200190815260200160002060006101000a81548160ff0219169083151502179055508173ffffffffffffffffffffffffffffffffffffffff163373ffffffffffffffffffffffffffffffffffffffff167f17307eab39ab6107e8899845ad3d59bd9653f200f220920489ca2b5937696c31836040516110569190611c0e565b60405180910390a35050565b87873373ffffffffffffffffffffffffffffffffffffffff166005600084815260200190815260200160002060009054906101000a900473ffffffffffffffffffffffffffffffffffffffff1673ffffffffffffffffffffffffffffffffffffffff1614611105576040517f08c379a00000000000000000000000000000000000000000000000000000000081526004016110fc90611d41565b60405180910390fd5b60008a898960405160200161111c93929190611da3565b6040516020818303038152906040528051906020012090508686600a60008481526020019081526020016000209182611156929190611fc6565b508484600b60008481526020019081526020016000209182611179929190611fc6565b505050505050505050505050565b60096020528160005260406000206020528060005260406000206000915091509054906101000a900460ff1681565b83833373ffffffffffffffffffffffffffffffffffffffff166005600084815260200190815260200160002060009054906101000a900473ffffffffffffffffffffffffffffffffffffffff1673ffffffffffffffffffffffffffffffffffffffff1614611259576040517f08c379a000000000000000000000000000000000000000000000000000000000815260040161125090611d41565b60405180910390fd5b600086858560405160200161127093929190611da3565b604051602081830303815290604052805190602001209050600a600082815260200190815260200160002060006112a791906115fc565b50505050505050565b60008373ffffffffffffffffffffffffffffffffffffffff168373ffffffffffffffffffffffffffffffffffffffff1614806113725750600960008573ffffffffffffffffffffffffffffffffffffffff1673ffffffffffffffffffffffffffffffffffffffff16815260200190815260200160002060008473ffffffffffffffffffffffffffffffffffffffff1673ffffffffffffffffffffffffffffffffffffffff16815260200190815260200160002060009054906101000a900460ff165b806113db57506008600083815260200190815260200160002060009054906101000a900473ffffffffffffffffffffffffffffffffffffffff1673ffffffffffffffffffffffffffffffffffffffff168373ffffffffffffffffffffffffffffffffffffffff16145b90509392505050565b600073ffffffffffffffffffffffffffffffffffffffff168273ffffffffffffffffffffffffffffffffffffffff1603611453576040517f08c379a000000000000000000000000000000000000000000000000000000000815260040161144a9061240a565b60405180910390fd5b600073ffffffffffffffffffffffffffffffffffffffff166005600083815260200190815260200160002060009054906101000a900473ffffffffffffffffffffffffffffffffffffffff1673ffffffffffffffffffffffffffffffffffffffff16146114f5576040517f08c379a00000000000000000000000000000000000000000000000000000000081526004016114ec90612476565b60405180910390fd5b600760008373ffffffffffffffffffffffffffffffffffffffff1673ffffffffffffffffffffffffffffffffffffffff1681526020019081526020016000206000815480929190611545906121c6565b9190505550816005600083815260200190815260200160002060006101000a81548173ffffffffffffffffffffffffffffffffffffffff021916908373ffffffffffffffffffffffffffffffffffffffff160217905550808273ffffffffffffffffffffffffffffffffffffffff16600073ffffffffffffffffffffffffffffffffffffffff167fddf252ad1be2c89b69c2b068fc378daa952ba7f163c4a11628f55a4df523b3ef60405160405180910390a45050565b50805461160890611c58565b6000825580601f1061161a5750611639565b601f016020900490600052602060002090810190611638919061163c565b5b50565b5b8082111561165557600081600090555060010161163d565b5090565b600081519050919050565b600082825260208201905092915050565b60005b83811015611693578082015181840152602081019050611678565b60008484015250505050565b6000601f19601f8301169050919050565b60006116bb82611659565b6116c58185611664565b93506116d5818560208601611675565b6116de8161169f565b840191505092915050565b6000602082019050818103600083015261170381846116b0565b905092915050565b600080fd5b600080fd5b600073ffffffffffffffffffffffffffffffffffffffff82169050919050565b600061174082611715565b9050919050565b61175081611735565b811461175b57600080fd5b50565b60008135905061176d81611747565b92915050565b6000819050919050565b61178681611773565b811461179157600080fd5b50565b6000813590506117a38161177d565b92915050565b600080604083850312156117c0576117bf61170b565b5b60006117ce8582860161175e565b92505060206117df85828601611794565b9150509250929050565b6000819050919050565b6117fc816117e9565b811461180757600080fd5b50565b600081359050611819816117f3565b92915050565b600080fd5b600080fd5b600080fd5b60008083601f8401126118445761184361181f565b5b8235905067ffffffffffffffff81111561186157611860611824565b5b60208301915083600182028301111561187d5761187c611829565b5b9250929050565b60008060008060008060008060c0898b0312156118a4576118a361170b565b5b60006118b28b828c01611794565b98505060206118c38b828c0161180a565b97505060406118d48b828c0161180a565b96505060606118e58b828c0161180a565b955050608089013567ffffffffffffffff81111561190657611905611710565b5b6119128b828c0161182e565b945094505060a089013567ffffffffffffffff81111561193557611934611710565b5b6119418b828c0161182e565b92509250509295985092959890939650565b61195c81611773565b82525050565b60006020820190506119776000830184611953565b92915050565b6000806000606084860312156119965761199561170b565b5b60006119a48682870161175e565b93505060206119b58682870161175e565b92505060406119c686828701611794565b9150509250925092565b6000602082840312156119e6576119e561170b565b5b60006119f484828501611794565b91505092915050565b611a0681611735565b82525050565b6000602082019050611a2160008301846119fd565b92915050565b600060208284031215611a3d57611a3c61170b565b5b6000611a4b8482850161175e565b91505092915050565b60008060008060808587031215611a6e57611a6d61170b565b5b6000611a7c87828801611794565b9450506020611a8d8782880161180a565b9350506040611a9e8782880161180a565b9250506060611aaf8782880161180a565b91505092959194509250565b600081519050919050565b600082825260208201905092915050565b6000611ae282611abb565b611aec8185611ac6565b9350611afc818560208601611675565b611b058161169f565b840191505092915050565b60006040820190508181036000830152611b2a8185611ad7565b90508181036020830152611b3e8184611ad7565b90509392505050565b60008115159050919050565b611b5c81611b47565b8114611b6757600080fd5b50565b600081359050611b7981611b53565b92915050565b60008060408385031215611b9657611b9561170b565b5b6000611ba48582860161175e565b9250506020611bb585828601611b6a565b9150509250929050565b60008060408385031215611bd657611bd561170b565b5b6000611be48582860161175e565b9250506020611bf58582860161175e565b9150509250929050565b611c0881611b47565b82525050565b6000602082019050611c236000830184611bff565b92915050565b7f4e487b7100000000000000000000000000000000000000000000000000000000600052602260045260246000fd5b60006002820490506001821680611c7057607f821691505b602082108103611c8357611c82611c29565b5b50919050565b7f6e6f7420617574686f72697a6564000000000000000000000000000000000000600082015250565b6000611cbf600e83611664565b9150611cca82611c89565b602082019050919050565b60006020820190508181036000830152611cee81611cb2565b9050919050565b7f4f6e6c79206f776e65722063616e207573652074686973000000000000000000600082015250565b6000611d2b601783611664565b9150611d3682611cf5565b602082019050919050565b60006020820190508181036000830152611d5a81611d1e565b9050919050565b6000819050919050565b611d7c611d7782611773565b611d61565b82525050565b6000819050919050565b611d9d611d98826117e9565b611d82565b82525050565b6000611daf8286611d6b565b602082019150611dbf8285611d8c565b602082019150611dcf8284611d8c565b602082019150819050949350505050565b600082905092915050565b7f4e487b7100000000000000000000000000000000000000000000000000000000600052604160045260246000fd5b60008190508160005260206000209050919050565b60006020601f8301049050919050565b600082821b905092915050565b600060088302611e7c7fffffffffffffffffffffffffffffffffffffffffffffffffffffffffffffffff82611e3f565b611e868683611e3f565b95508019841693508086168417925050509392505050565b6000819050919050565b6000611ec3611ebe611eb984611773565b611e9e565b611773565b9050919050565b6000819050919050565b611edd83611ea8565b611ef1611ee982611eca565b848454611e4c565b825550505050565b600090565b611f06611ef9565b611f11818484611ed4565b505050565b5b81811015611f3557611f2a600082611efe565b600181019050611f17565b5050565b601f821115611f7a57611f4b81611e1a565b611f5484611e2f565b81016020851015611f63578190505b611f77611f6f85611e2f565b830182611f16565b50505b505050565b600082821c905092915050565b6000611f9d60001984600802611f7f565b1980831691505092915050565b6000611fb68383611f8c565b9150826002028217905092915050565b611fd08383611de0565b67ffffffffffffffff811115611fe957611fe8611deb565b5b611ff38254611c58565b611ffe828285611f39565b6000601f83116001811461202d576000841561201b578287013590505b6120258582611faa565b86555061208d565b601f19841661203b86611e1a565b60005b828110156120635784890135825560018201915060208501945060208101905061203e565b86831015612080578489013561207c601f891682611f8c565b8355505b6001600288020188555050505b50505050505050565b7f66726f6d20213d206f776e657200000000000000000000000000000000000000600082015250565b60006120cc600d83611664565b91506120d782612096565b602082019050919050565b600060208201905081810360008301526120fb816120bf565b9050919050565b7f7472616e7366657220746f207a65726f20616464726573730000000000000000600082015250565b6000612138601883611664565b915061214382612102565b602082019050919050565b600060208201905081810360008301526121678161212b565b9050919050565b7f4e487b7100000000000000000000000000000000000000000000000000000000600052601160045260246000fd5b60006121a882611773565b9150600082036121bb576121ba61216e565b5b600182039050919050565b60006121d182611773565b91507fffffffffffffffffffffffffffffffffffffffffffffffffffffffffffffffff82036122035761220261216e565b5b600182019050919050565b7f746f6b656e20646f65736e277420657869737400000000000000000000000000600082015250565b6000612244601383611664565b915061224f8261220e565b602082019050919050565b6000602082019050818103600083015261227381612237565b9050919050565b7f6f776e6572203d207a65726f2061646472657373000000000000000000000000600082015250565b60006122b0601483611664565b91506122bb8261227a565b602082019050919050565b600060208201905081810360008301526122df816122a3565b9050919050565b7f50617373776f726420646f6573206e6f74206578697374000000000000000000600082015250565b600061231c601783611664565b9150612327826122e6565b602082019050919050565b6000602082019050818103600083015261234b8161230f565b9050919050565b7f697620646f6573206e6f74206578697374000000000000000000000000000000600082015250565b6000612388601183611664565b915061239382612352565b602082019050919050565b600060208201905081810360008301526123b78161237b565b9050919050565b7f6d696e7420746f207a65726f2061646472657373000000000000000000000000600082015250565b60006123f4601483611664565b91506123ff826123be565b602082019050919050565b60006020820190508181036000830152612423816123e7565b9050919050565b7f616c7265616479206d696e746564000000000000000000000000000000000000600082015250565b6000612460600e83611664565b915061246b8261242a565b602082019050919050565b6000602082019050818103600083015261248f81612453565b905091905056fea2646970667358221220783a46a3b2c21b645f4c1a1ea14115b8187b10977f8a5008f1f64fc4072f79f464736f6c634300081c0033",
    "linkReferences": {},
    "deployedLinkReferences": {}
}